{
  "_format": "hh-sol-artifact-1",
  "contractName": "LSP8IdentifiableDigitalAsset",
  "sourceName": "@lukso/lsp-smart-contracts/contracts/LSP8IdentifiableDigitalAsset/LSP8IdentifiableDigitalAsset.sol",
  "abi": [
    {
      "inputs": [
        {
          "internalType": "string",
          "name": "name_",
          "type": "string"
        },
        {
          "internalType": "string",
          "name": "symbol_",
          "type": "string"
        },
        {
          "internalType": "address",
          "name": "newOwner_",
          "type": "address"
        }
      ],
      "stateMutability": "nonpayable",
      "type": "constructor"
    },
    {
      "inputs": [],
      "name": "LSP4TokenNameNotEditable",
      "type": "error"
    },
    {
      "inputs": [],
      "name": "LSP4TokenSymbolNotEditable",
      "type": "error"
    },
    {
      "inputs": [],
      "name": "LSP8CannotSendToAddressZero",
      "type": "error"
    },
    {
      "inputs": [],
      "name": "LSP8CannotUseAddressZeroAsOperator",
      "type": "error"
    },
    {
      "inputs": [],
      "name": "LSP8InvalidTransferBatch",
      "type": "error"
    },
    {
      "inputs": [
        {
          "internalType": "bytes32",
          "name": "tokenId",
          "type": "bytes32"
        }
      ],
      "name": "LSP8NonExistentTokenId",
      "type": "error"
    },
    {
      "inputs": [
        {
          "internalType": "bytes32",
          "name": "tokenId",
          "type": "bytes32"
        },
        {
          "internalType": "address",
          "name": "caller",
          "type": "address"
        }
      ],
      "name": "LSP8NotTokenOperator",
      "type": "error"
    },
    {
      "inputs": [
        {
          "internalType": "address",
          "name": "tokenOwner",
          "type": "address"
        },
        {
          "internalType": "bytes32",
          "name": "tokenId",
          "type": "bytes32"
        },
        {
          "internalType": "address",
          "name": "caller",
          "type": "address"
        }
      ],
      "name": "LSP8NotTokenOwner",
      "type": "error"
    },
    {
      "inputs": [
        {
          "internalType": "address",
          "name": "tokenReceiver",
          "type": "address"
        }
      ],
      "name": "LSP8NotifyTokenReceiverContractMissingLSP1Interface",
      "type": "error"
    },
    {
      "inputs": [
        {
          "internalType": "address",
          "name": "tokenReceiver",
          "type": "address"
        }
      ],
      "name": "LSP8NotifyTokenReceiverIsEOA",
      "type": "error"
    },
    {
      "anonymous": false,
      "inputs": [
        {
          "indexed": true,
          "internalType": "address",
          "name": "operator",
          "type": "address"
        },
        {
          "indexed": true,
          "internalType": "address",
          "name": "tokenOwner",
          "type": "address"
        },
        {
          "indexed": true,
          "internalType": "bytes32",
          "name": "tokenId",
          "type": "bytes32"
        }
      ],
      "name": "AuthorizedOperator",
      "type": "event"
    },
    {
      "anonymous": false,
      "inputs": [
        {
          "indexed": true,
          "internalType": "bytes32",
          "name": "dataKey",
          "type": "bytes32"
        }
      ],
      "name": "DataChanged",
      "type": "event"
    },
    {
      "anonymous": false,
      "inputs": [
        {
          "indexed": true,
          "internalType": "address",
          "name": "previousOwner",
          "type": "address"
        },
        {
          "indexed": true,
          "internalType": "address",
          "name": "newOwner",
          "type": "address"
        }
      ],
      "name": "OwnershipTransferred",
      "type": "event"
    },
    {
      "anonymous": false,
      "inputs": [
        {
          "indexed": true,
          "internalType": "address",
          "name": "operator",
          "type": "address"
        },
        {
          "indexed": true,
          "internalType": "address",
          "name": "tokenOwner",
          "type": "address"
        },
        {
          "indexed": true,
          "internalType": "bytes32",
          "name": "tokenId",
          "type": "bytes32"
        }
      ],
      "name": "RevokedOperator",
      "type": "event"
    },
    {
      "anonymous": false,
      "inputs": [
        {
          "indexed": false,
          "internalType": "address",
          "name": "operator",
          "type": "address"
        },
        {
          "indexed": true,
          "internalType": "address",
          "name": "from",
          "type": "address"
        },
        {
          "indexed": true,
          "internalType": "address",
          "name": "to",
          "type": "address"
        },
        {
          "indexed": true,
          "internalType": "bytes32",
          "name": "tokenId",
          "type": "bytes32"
        },
        {
          "indexed": false,
          "internalType": "bool",
          "name": "force",
          "type": "bool"
        },
        {
          "indexed": false,
          "internalType": "bytes",
          "name": "data",
          "type": "bytes"
        }
      ],
      "name": "Transfer",
      "type": "event"
    },
    {
      "inputs": [
        {
          "internalType": "address",
          "name": "operator",
          "type": "address"
        },
        {
          "internalType": "bytes32",
          "name": "tokenId",
          "type": "bytes32"
        }
      ],
      "name": "authorizeOperator",
      "outputs": [],
      "stateMutability": "nonpayable",
      "type": "function"
    },
    {
      "inputs": [
        {
          "internalType": "address",
          "name": "tokenOwner",
          "type": "address"
        }
      ],
      "name": "balanceOf",
      "outputs": [
        {
          "internalType": "uint256",
          "name": "",
          "type": "uint256"
        }
      ],
      "stateMutability": "view",
      "type": "function"
    },
    {
      "inputs": [
        {
          "internalType": "bytes32[]",
          "name": "dataKeys",
          "type": "bytes32[]"
        }
      ],
      "name": "getData",
      "outputs": [
        {
          "internalType": "bytes[]",
          "name": "dataValues",
          "type": "bytes[]"
        }
      ],
      "stateMutability": "view",
      "type": "function"
    },
    {
      "inputs": [
        {
          "internalType": "bytes32",
          "name": "dataKey",
          "type": "bytes32"
        }
      ],
      "name": "getData",
      "outputs": [
        {
          "internalType": "bytes",
          "name": "dataValue",
          "type": "bytes"
        }
      ],
      "stateMutability": "view",
      "type": "function"
    },
    {
      "inputs": [
        {
          "internalType": "bytes32",
          "name": "tokenId",
          "type": "bytes32"
        }
      ],
      "name": "getOperatorsOf",
      "outputs": [
        {
          "internalType": "address[]",
          "name": "",
          "type": "address[]"
        }
      ],
      "stateMutability": "view",
      "type": "function"
    },
    {
      "inputs": [
        {
          "internalType": "address",
          "name": "operator",
          "type": "address"
        },
        {
          "internalType": "bytes32",
          "name": "tokenId",
          "type": "bytes32"
        }
      ],
      "name": "isOperatorFor",
      "outputs": [
        {
          "internalType": "bool",
          "name": "",
          "type": "bool"
        }
      ],
      "stateMutability": "view",
      "type": "function"
    },
    {
      "inputs": [],
      "name": "owner",
      "outputs": [
        {
          "internalType": "address",
          "name": "",
          "type": "address"
        }
      ],
      "stateMutability": "view",
      "type": "function"
    },
    {
      "inputs": [],
      "name": "renounceOwnership",
      "outputs": [],
      "stateMutability": "nonpayable",
      "type": "function"
    },
    {
      "inputs": [
        {
          "internalType": "address",
          "name": "operator",
          "type": "address"
        },
        {
          "internalType": "bytes32",
          "name": "tokenId",
          "type": "bytes32"
        }
      ],
      "name": "revokeOperator",
      "outputs": [],
      "stateMutability": "nonpayable",
      "type": "function"
    },
    {
      "inputs": [
        {
          "internalType": "bytes32[]",
          "name": "dataKeys",
          "type": "bytes32[]"
        },
        {
          "internalType": "bytes[]",
          "name": "dataValues",
          "type": "bytes[]"
        }
      ],
      "name": "setData",
      "outputs": [],
      "stateMutability": "nonpayable",
      "type": "function"
    },
    {
      "inputs": [
        {
          "internalType": "bytes32",
          "name": "dataKey",
          "type": "bytes32"
        },
        {
          "internalType": "bytes",
          "name": "dataValue",
          "type": "bytes"
        }
      ],
      "name": "setData",
      "outputs": [],
      "stateMutability": "nonpayable",
      "type": "function"
    },
    {
      "inputs": [
        {
          "internalType": "bytes4",
          "name": "interfaceId",
          "type": "bytes4"
        }
      ],
      "name": "supportsInterface",
      "outputs": [
        {
          "internalType": "bool",
          "name": "",
          "type": "bool"
        }
      ],
      "stateMutability": "view",
      "type": "function"
    },
    {
      "inputs": [
        {
          "internalType": "address",
          "name": "tokenOwner",
          "type": "address"
        }
      ],
      "name": "tokenIdsOf",
      "outputs": [
        {
          "internalType": "bytes32[]",
          "name": "",
          "type": "bytes32[]"
        }
      ],
      "stateMutability": "view",
      "type": "function"
    },
    {
      "inputs": [
        {
          "internalType": "bytes32",
          "name": "tokenId",
          "type": "bytes32"
        }
      ],
      "name": "tokenOwnerOf",
      "outputs": [
        {
          "internalType": "address",
          "name": "",
          "type": "address"
        }
      ],
      "stateMutability": "view",
      "type": "function"
    },
    {
      "inputs": [],
      "name": "totalSupply",
      "outputs": [
        {
          "internalType": "uint256",
          "name": "",
          "type": "uint256"
        }
      ],
      "stateMutability": "view",
      "type": "function"
    },
    {
      "inputs": [
        {
          "internalType": "address",
          "name": "from",
          "type": "address"
        },
        {
          "internalType": "address",
          "name": "to",
          "type": "address"
        },
        {
          "internalType": "bytes32",
          "name": "tokenId",
          "type": "bytes32"
        },
        {
          "internalType": "bool",
          "name": "force",
          "type": "bool"
        },
        {
          "internalType": "bytes",
          "name": "data",
          "type": "bytes"
        }
      ],
      "name": "transfer",
      "outputs": [],
      "stateMutability": "nonpayable",
      "type": "function"
    },
    {
      "inputs": [
        {
          "internalType": "address[]",
          "name": "from",
          "type": "address[]"
        },
        {
          "internalType": "address[]",
          "name": "to",
          "type": "address[]"
        },
        {
          "internalType": "bytes32[]",
          "name": "tokenId",
          "type": "bytes32[]"
        },
        {
          "internalType": "bool",
          "name": "force",
          "type": "bool"
        },
        {
          "internalType": "bytes[]",
          "name": "data",
          "type": "bytes[]"
        }
      ],
      "name": "transferBatch",
      "outputs": [],
      "stateMutability": "nonpayable",
      "type": "function"
    },
    {
      "inputs": [
        {
          "internalType": "address",
          "name": "newOwner",
          "type": "address"
        }
      ],
      "name": "transferOwnership",
      "outputs": [],
      "stateMutability": "nonpayable",
      "type": "function"
    }
  ],
  "bytecode": "0x60806040523480156200001157600080fd5b50604051620024f0380380620024f0833981016040819052620000349162000350565b828282806200004e816200012560201b620009f01760201c565b50620000a57feafec4d89fa9619884b60000a4d96624a38f7ac2d8d9a604ecf07c12c77e480c60001b604051806040016040528060048152602001632936598960e21b8152506200018c60201b62000a6d1760201c565b620000df7fdeba1e292f8ba88238e10ab3c7f88bd4be4fac56cad5194b6ecceaf653468af160001b846200018c60201b62000a6d1760201c565b620001197f2f0a68ab07768e01943a599e73362a0e17a63a72e94dd2e384d2c1d4db93275660001b836200018c60201b62000a6d1760201c565b5050505050506200041a565b6000546001600160a01b038281169116146200018957600080546001600160a01b038381166001600160a01b0319831681178455604051919092169283917f8be0079c531659141344cd1fd0a4f28419497f9722a3daafe3b4186f6b6457e09190a3505b50565b60008281526001602090815260409091208251620001ad92840190620001dd565b5060405182907fcdf4e344c0d23d4cdd0474039d176c55b19d531070dbe17856bfb993a5b5720b90600090a25050565b828054620001eb90620003dd565b90600052602060002090601f0160209004810192826200020f57600085556200025a565b82601f106200022a57805160ff19168380011785556200025a565b828001600101855582156200025a579182015b828111156200025a5782518255916020019190600101906200023d565b50620002689291506200026c565b5090565b5b808211156200026857600081556001016200026d565b634e487b7160e01b600052604160045260246000fd5b600082601f830112620002ab57600080fd5b81516001600160401b0380821115620002c857620002c862000283565b604051601f8301601f19908116603f01168101908282118183101715620002f357620002f362000283565b816040528381526020925086838588010111156200031057600080fd5b600091505b8382101562000334578582018301518183018401529082019062000315565b83821115620003465760008385830101525b9695505050505050565b6000806000606084860312156200036657600080fd5b83516001600160401b03808211156200037e57600080fd5b6200038c8783880162000299565b94506020860151915080821115620003a357600080fd5b50620003b28682870162000299565b604086015190935090506001600160a01b0381168114620003d257600080fd5b809150509250925092565b600181811c90821680620003f257607f821691505b602082108114156200041457634e487b7160e01b600052602260045260246000fd5b50919050565b6120c6806200042a6000396000f3fe608060405234801561001057600080fd5b50600436106101365760003560e01c806354f6127f116100b25780637f23690c11610081578063a3b261f211610066578063a3b261f2146102a0578063cf5182ba146102c0578063f2fde38b146102d357600080fd5b80637f23690c1461027c5780638da5cb5b1461028f57600080fd5b806354f6127f1461022e578063559088681461024e57806370a0823114610261578063715018a61461027457600080fd5b8063217b22701161010957806349a6078d116100ee57806349a6078d146101db5780634e3e6e9c146101fb578063511b69521461021b57600080fd5b8063217b22701461019d5780632a3654a4146101c857600080fd5b806301ffc9a71461013b5780630b0c6d821461016357806314a6e2931461017857806318160ddd1461018b575b600080fd5b61014e610149366004611770565b6102e6565b60405190151581526020015b60405180910390f35b6101766101713660046117ce565b610342565b005b6101766101863660046119e0565b610422565b6002545b60405190815260200161015a565b6101b06101ab366004611a44565b610510565b6040516001600160a01b03909116815260200161015a565b61014e6101d63660046117ce565b610562565b6101ee6101e9366004611a44565b61057e565b60405161015a9190611a5d565b61020e610209366004611aaa565b6105a0565b60405161015a9190611b37565b610176610229366004611bc5565b610654565b61024161023c366004611a44565b6106bc565b60405161015a9190611c40565b61017661025c366004611cb5565b6106c7565b61018f61026f366004611d6a565b6107ad565b6101766107ce565b61017661028a366004611d85565b6107e2565b6000546001600160a01b03166101b0565b6102b36102ae366004611d6a565b6107f8565b60405161015a9190611dc2565b6101766102ce3660046117ce565b61081c565b6101766102e1366004611d6a565b610946565b60007fffffffff0000000000000000000000000000000000000000000000000000000082167f4939914500000000000000000000000000000000000000000000000000000000148061033c575061033c82610abc565b92915050565b600061034d82610510565b9050336001600160a01b03821681146103b1576040517f5b271ea20000000000000000000000000000000000000000000000000000000081526001600160a01b03808416600483015260248201859052821660448201526064015b60405180910390fd5b6001600160a01b0384166103f1576040517f9577b8b300000000000000000000000000000000000000000000000000000000815260040160405180910390fd5b836001600160a01b0316826001600160a01b031614156104115750505050565b61041c848385610b53565b50505050565b61042a610bb2565b80518251146104bb576040517f08c379a000000000000000000000000000000000000000000000000000000000815260206004820152602660248201527f4b657973206c656e677468206e6f7420657175616c20746f2076616c7565732060448201527f6c656e677468000000000000000000000000000000000000000000000000000060648201526084016103a8565b60005b825181101561050b576105038382815181106104dc576104dc611dfa565b60200260200101518383815181106104f6576104f6611dfa565b6020026020010151610c35565b6001016104be565b505050565b6000818152600360205260408120546001600160a01b03168061033c576040517fae8f9a36000000000000000000000000000000000000000000000000000000008152600481018490526024016103a8565b600061056d82610cf3565b6105778383610d44565b9392505050565b606061058982610cf3565b600082815260056020526040902061033c90610d8d565b6060815167ffffffffffffffff8111156105bc576105bc6117f8565b6040519080825280602002602001820160405280156105ef57816020015b60608152602001906001900390816105da5790505b50905060005b825181101561064e5761062083828151811061061357610613611dfa565b6020026020010151610d9a565b82828151811061063257610632611dfa565b60200260200101819052506106478160010190565b90506105f5565b50919050565b3361065f8185610d44565b6106a7576040517f1294d2a9000000000000000000000000000000000000000000000000000000008152600481018590526001600160a01b03821660248201526044016103a8565b6106b48686868686610e3c565b505050505050565b606061033c82610d9a565b835185511415806106da57508251855114155b806106e757508051855114155b1561071e576040517f93a8311900000000000000000000000000000000000000000000000000000000815260040160405180910390fd5b60005b85518110156106b45761079b86828151811061073f5761073f611dfa565b602002602001015186838151811061075957610759611dfa565b602002602001015186848151811061077357610773611dfa565b60200260200101518686868151811061078e5761078e611dfa565b6020026020010151610654565b806107a581611e58565b915050610721565b6001600160a01b038116600090815260046020526040812061033c90610ff2565b6107d6610bb2565b6107e060006109f0565b565b6107ea610bb2565b6107f48282610c35565b5050565b6001600160a01b038116600090815260046020526040902060609061033c90610ffc565b600061082782610510565b9050336001600160a01b0382168114610886576040517f5b271ea20000000000000000000000000000000000000000000000000000000081526001600160a01b03808416600483015260248201859052821660448201526064016103a8565b6001600160a01b0384166108c6576040517f9577b8b300000000000000000000000000000000000000000000000000000000815260040160405180910390fd5b836001600160a01b0316826001600160a01b031614156108e65750505050565b60008381526005602052604090206108fe9085611007565b5082826001600160a01b0316856001600160a01b03167f34b797fc5a526f7bf1d2b5de25f6564fd85ae364e3ee939aee7c1ac27871a98860405160405180910390a450505050565b61094e610bb2565b6001600160a01b0381166109e4576040517f08c379a000000000000000000000000000000000000000000000000000000000815260206004820152602660248201527f4f776e61626c653a206e6577206f776e657220697320746865207a65726f206160448201527f646472657373000000000000000000000000000000000000000000000000000060648201526084016103a8565b6109ed816109f0565b50565b6000546001600160a01b038281169116146109ed57600080546001600160a01b038381167fffffffffffffffffffffffff0000000000000000000000000000000000000000831681178455604051919092169283917f8be0079c531659141344cd1fd0a4f28419497f9722a3daafe3b4186f6b6457e09190a35050565b60008281526001602090815260409091208251610a8c928401906116d7565b5060405182907fcdf4e344c0d23d4cdd0474039d176c55b19d531070dbe17856bfb993a5b5720b90600090a25050565b60007fffffffff0000000000000000000000000000000000000000000000000000000082167f714df77c00000000000000000000000000000000000000000000000000000000148061033c57507f01ffc9a7000000000000000000000000000000000000000000000000000000007fffffffff0000000000000000000000000000000000000000000000000000000083161461033c565b6000818152600560205260409020610b6b908461101c565b5080826001600160a01b0316846001600160a01b03167f17d5389f6ab6adb2647dfa0aa365c323d37adacc30b33a65310b6158ce1373d560405160405180910390a4505050565b33610bc56000546001600160a01b031690565b6001600160a01b0316146107e0576040517f08c379a000000000000000000000000000000000000000000000000000000000815260206004820181905260248201527f4f776e61626c653a2063616c6c6572206973206e6f7420746865206f776e657260448201526064016103a8565b7fdeba1e292f8ba88238e10ab3c7f88bd4be4fac56cad5194b6ecceaf653468af1821415610c8f576040517f85c169bd00000000000000000000000000000000000000000000000000000000815260040160405180910390fd5b7f2f0a68ab07768e01943a599e73362a0e17a63a72e94dd2e384d2c1d4db932756821415610ce9576040517f76755b3800000000000000000000000000000000000000000000000000000000815260040160405180910390fd5b6107f48282610a6d565b6000818152600360205260409020546001600160a01b03166109ed576040517fae8f9a36000000000000000000000000000000000000000000000000000000008152600481018290526024016103a8565b600080610d5083610510565b9050806001600160a01b0316846001600160a01b03161480610d8557506000838152600560205260409020610d859085611031565b949350505050565b6060600061057783611053565b6000818152600160205260409020805460609190610db790611e91565b80601f0160208091040260200160405190810160405280929190818152602001828054610de390611e91565b8015610e305780601f10610e0557610100808354040283529160200191610e30565b820191906000526020600020905b815481529060010190602001808311610e1357829003601f168201915b50505050509050919050565b6000610e4784610510565b9050856001600160a01b0316816001600160a01b031614610eae576040517f5b271ea20000000000000000000000000000000000000000000000000000000081526001600160a01b03808316600483015260248201869052871660448201526064016103a8565b6001600160a01b038516610eee576040517f24ecef4d00000000000000000000000000000000000000000000000000000000815260040160405180910390fd5b33610efa8787876110ae565b610f048786611100565b6001600160a01b0387166000908152600460205260409020610f269086611158565b506001600160a01b0386166000908152600460205260409020610f499086611164565b506000858152600360205260409081902080547fffffffffffffffffffffffff0000000000000000000000000000000000000000166001600160a01b0389811691821790925591518792918a16907fb333c813a7426a7a11e2b190cad52c44119421594b47f6f32ace6d8c7207b2bf90610fc89086908a908a90611edf565b60405180910390a4610fdc87878786611170565b610fe98787878787611285565b50505050505050565b600061033c825490565b606061033c82611053565b6000610577836001600160a01b038416611430565b6000610577836001600160a01b03841661147f565b6001600160a01b03811660009081526001830160205260408120541515610577565b606081600001805480602002602001604051908101604052809291908181526020018280548015610e3057602002820191906000526020600020905b81548152602001906001019080831161108f5750505050509050919050565b6001600160a01b0383166110d5576001600260008282546110cf9190611f12565b90915550505b6001600160a01b03821661050b576001600260008282546110f69190611f2a565b9091555050505050565b60008181526005602052604081209061111882610ff2565b905060005b818110156111515760006111318482611572565b905061113e818787610b53565b508061114981611e58565b91505061111d565b5050505050565b6000610577838361147f565b60006105778383611430565b61119a847f6bb56a140000000000000000000000000000000000000000000000000000000061157e565b1561041c576000848484846040516020016111b89493929190611f41565b60408051601f19818403018152908290527f6bb56a1400000000000000000000000000000000000000000000000000000000825291506001600160a01b03861690636bb56a149061122f907f3724c94f0815e936299cca424da4140752198e0beb7931a6e0925d11bc97544c908590600401611fa1565b600060405180830381600087803b15801561124957600080fd5b505af115801561125d573d6000803e3d6000fd5b505050506040513d6000823e601f3d908101601f191682016040526106b49190810190611fba565b6112af847f6bb56a140000000000000000000000000000000000000000000000000000000061157e565b156113a1576000858585846040516020016112cd9493929190611f41565b60408051601f19818403018152908290527f6bb56a1400000000000000000000000000000000000000000000000000000000825291506001600160a01b03861690636bb56a1490611344907fc7a120a42b6057a0cbed111fbbfbd52fcd96748c04394f77fc2c3adbe0391e01908590600401611fa1565b600060405180830381600087803b15801561135e57600080fd5b505af1158015611372573d6000803e3d6000fd5b505050506040513d6000823e601f3d908101601f1916820160405261139a9190810190611fba565b5050611151565b81611151576001600160a01b0384163b156113f3576040517f4349776d0000000000000000000000000000000000000000000000000000000081526001600160a01b03851660048201526024016103a8565b6040517f031731370000000000000000000000000000000000000000000000000000000081526001600160a01b03851660048201526024016103a8565b60008181526001830160205260408120546114775750815460018181018455600084815260208082209093018490558454848252828601909352604090209190915561033c565b50600061033c565b600081815260018301602052604081205480156115685760006114a3600183611f2a565b85549091506000906114b790600190611f2a565b905081811461151c5760008660000182815481106114d7576114d7611dfa565b90600052602060002001549050808760000184815481106114fa576114fa611dfa565b6000918252602080832090910192909255918252600188019052604090208390555b855486908061152d5761152d612028565b60019003818190600052602060002001600090559055856001016000868152602001908152602001600020600090556001935050505061033c565b600091505061033c565b600061057783836116ad565b604080517fffffffff00000000000000000000000000000000000000000000000000000000831660248083019190915282518083039091018152604490910182526020810180517bffffffffffffffffffffffffffffffffffffffffffffffffffffffff167f01ffc9a700000000000000000000000000000000000000000000000000000000179052905160009190829081906001600160a01b038716906175309061162b908690612057565b6000604051808303818686fa925050503d8060008114611667576040519150601f19603f3d011682016040523d82523d6000602084013e61166c565b606091505b5091509150602081511015611687576000935050505061033c565b8180156116a35750808060200190518101906116a39190612073565b9695505050505050565b60008260000182815481106116c4576116c4611dfa565b9060005260206000200154905092915050565b8280546116e390611e91565b90600052602060002090601f016020900481019282611705576000855561174b565b82601f1061171e57805160ff191683800117855561174b565b8280016001018555821561174b579182015b8281111561174b578251825591602001919060010190611730565b5061175792915061175b565b5090565b5b80821115611757576000815560010161175c565b60006020828403121561178257600080fd5b81357fffffffff000000000000000000000000000000000000000000000000000000008116811461057757600080fd5b80356001600160a01b03811681146117c957600080fd5b919050565b600080604083850312156117e157600080fd5b6117ea836117b2565b946020939093013593505050565b7f4e487b7100000000000000000000000000000000000000000000000000000000600052604160045260246000fd5b604051601f8201601f1916810167ffffffffffffffff81118282101715611850576118506117f8565b604052919050565b600067ffffffffffffffff821115611872576118726117f8565b5060051b60200190565b600082601f83011261188d57600080fd5b813560206118a261189d83611858565b611827565b82815260059290921b840181019181810190868411156118c157600080fd5b8286015b848110156118dc57803583529183019183016118c5565b509695505050505050565b600067ffffffffffffffff821115611901576119016117f8565b50601f01601f191660200190565b600082601f83011261192057600080fd5b813561192e61189d826118e7565b81815284602083860101111561194357600080fd5b816020850160208301376000918101602001919091529392505050565b600082601f83011261197157600080fd5b8135602061198161189d83611858565b82815260059290921b840181019181810190868411156119a057600080fd5b8286015b848110156118dc57803567ffffffffffffffff8111156119c45760008081fd5b6119d28986838b010161190f565b8452509183019183016119a4565b600080604083850312156119f357600080fd5b823567ffffffffffffffff80821115611a0b57600080fd5b611a178683870161187c565b93506020850135915080821115611a2d57600080fd5b50611a3a85828601611960565b9150509250929050565b600060208284031215611a5657600080fd5b5035919050565b6020808252825182820181905260009190848201906040850190845b81811015611a9e5783516001600160a01b031683529284019291840191600101611a79565b50909695505050505050565b600060208284031215611abc57600080fd5b813567ffffffffffffffff811115611ad357600080fd5b610d858482850161187c565b60005b83811015611afa578181015183820152602001611ae2565b8381111561041c5750506000910152565b60008151808452611b23816020860160208601611adf565b601f01601f19169290920160200192915050565b6000602080830181845280855180835260408601915060408160051b870101925083870160005b82811015611baa577fffffffffffffffffffffffffffffffffffffffffffffffffffffffffffffffc0888603018452611b98858351611b0b565b94509285019290850190600101611b5e565b5092979650505050505050565b80151581146109ed57600080fd5b600080600080600060a08688031215611bdd57600080fd5b611be6866117b2565b9450611bf4602087016117b2565b9350604086013592506060860135611c0b81611bb7565b9150608086013567ffffffffffffffff811115611c2757600080fd5b611c338882890161190f565b9150509295509295909350565b6020815260006105776020830184611b0b565b600082601f830112611c6457600080fd5b81356020611c7461189d83611858565b82815260059290921b84018101918181019086841115611c9357600080fd5b8286015b848110156118dc57611ca8816117b2565b8352918301918301611c97565b600080600080600060a08688031215611ccd57600080fd5b853567ffffffffffffffff80821115611ce557600080fd5b611cf189838a01611c53565b96506020880135915080821115611d0757600080fd5b611d1389838a01611c53565b95506040880135915080821115611d2957600080fd5b611d3589838a0161187c565b945060608801359150611d4782611bb7565b90925060808701359080821115611d5d57600080fd5b50611c3388828901611960565b600060208284031215611d7c57600080fd5b610577826117b2565b60008060408385031215611d9857600080fd5b82359150602083013567ffffffffffffffff811115611db657600080fd5b611a3a8582860161190f565b6020808252825182820181905260009190848201906040850190845b81811015611a9e57835183529284019291840191600101611dde565b7f4e487b7100000000000000000000000000000000000000000000000000000000600052603260045260246000fd5b7f4e487b7100000000000000000000000000000000000000000000000000000000600052601160045260246000fd5b60007fffffffffffffffffffffffffffffffffffffffffffffffffffffffffffffffff821415611e8a57611e8a611e29565b5060010190565b600181811c90821680611ea557607f821691505b6020821081141561064e577f4e487b7100000000000000000000000000000000000000000000000000000000600052602260045260246000fd5b6001600160a01b03841681528215156020820152606060408201526000611f096060830184611b0b565b95945050505050565b60008219821115611f2557611f25611e29565b500190565b600082821015611f3c57611f3c611e29565b500390565b60007fffffffffffffffffffffffffffffffffffffffff000000000000000000000000808760601b168352808660601b166014840152508360288301528251611f91816048850160208701611adf565b9190910160480195945050505050565b828152604060208201526000610d856040830184611b0b565b600060208284031215611fcc57600080fd5b815167ffffffffffffffff811115611fe357600080fd5b8201601f81018413611ff457600080fd5b805161200261189d826118e7565b81815285602083850101111561201757600080fd5b611f09826020830160208601611adf565b7f4e487b7100000000000000000000000000000000000000000000000000000000600052603160045260246000fd5b60008251612069818460208701611adf565b9190910192915050565b60006020828403121561208557600080fd5b815161057781611bb756fea2646970667358221220a966024641ebdb2a4f40ed5e3455d0b682942626971fd2561fd79d11b5560ea564736f6c63430008090033",
  "linkReferences": {},
  "deployedLinkReferences": {}
}