{
  "_format": "hh-sol-artifact-1",
  "contractName": "LSP2KeyUtil",
  "sourceName": "contracts/LSP2KeyUtil.sol",
  "abi": [
    {
      "inputs": [
        {
          "internalType": "bytes12",
          "name": "_mapKeyNamePrefix",
          "type": "bytes12"
        },
        {
          "internalType": "address",
          "name": "_address",
          "type": "address"
        }
      ],
      "name": "getMappedAddressKeyName",
      "outputs": [
        {
          "internalType": "bytes32",
          "name": "",
          "type": "bytes32"
        }
      ],
      "stateMutability": "pure",
      "type": "function"
    }
  ],
  "bytecode": "0x6101cc61003a600b82828239805160001a60731461002d57634e487b7160e01b600052600060045260246000fd5b30600052607381538281f3fe73000000000000000000000000000000000000000030146080604052600436106100355760003560e01c8063e1fd2a031461003a575b600080fd5b61004d6100483660046100da565b61005f565b60405190815260200160405180910390f35b604080517fffffffffffffffffffffffff0000000000000000000000000000000000000000841660208201527fffffffffffffffffffffffffffffffffffffffff000000000000000000000000606084901b16602c820152600091016040516020818303038152906040526100d390610151565b9392505050565b600080604083850312156100ed57600080fd5b82357fffffffffffffffffffffffff00000000000000000000000000000000000000008116811461011d57600080fd5b9150602083013573ffffffffffffffffffffffffffffffffffffffff8116811461014657600080fd5b809150509250929050565b80516020808301519190811015610190577fffffffffffffffffffffffffffffffffffffffffffffffffffffffffffffffff8160200360031b1b821691505b5091905056fea2646970667358221220d210827e3f0ff7ff5991bc954bf3fd8f263e7bc3f44b260c5a7f4dd82d92783364736f6c63430008090033",
  "linkReferences": {},
  "deployedLinkReferences": {}
}