{
  "_format": "hh-sol-artifact-1",
  "contractName": "ERC725Y",
  "sourceName": "@erc725/smart-contracts/contracts/ERC725Y.sol",
  "abi": [
    {
      "inputs": [
        {
          "internalType": "address",
          "name": "newOwner",
          "type": "address"
        }
      ],
      "stateMutability": "nonpayable",
      "type": "constructor"
    },
    {
      "anonymous": false,
      "inputs": [
        {
          "indexed": true,
          "internalType": "bytes32",
          "name": "dataKey",
          "type": "bytes32"
        }
      ],
      "name": "DataChanged",
      "type": "event"
    },
    {
      "anonymous": false,
      "inputs": [
        {
          "indexed": true,
          "internalType": "address",
          "name": "previousOwner",
          "type": "address"
        },
        {
          "indexed": true,
          "internalType": "address",
          "name": "newOwner",
          "type": "address"
        }
      ],
      "name": "OwnershipTransferred",
      "type": "event"
    },
    {
      "inputs": [
        {
          "internalType": "bytes32[]",
          "name": "dataKeys",
          "type": "bytes32[]"
        }
      ],
      "name": "getData",
      "outputs": [
        {
          "internalType": "bytes[]",
          "name": "dataValues",
          "type": "bytes[]"
        }
      ],
      "stateMutability": "view",
      "type": "function"
    },
    {
      "inputs": [
        {
          "internalType": "bytes32",
          "name": "dataKey",
          "type": "bytes32"
        }
      ],
      "name": "getData",
      "outputs": [
        {
          "internalType": "bytes",
          "name": "dataValue",
          "type": "bytes"
        }
      ],
      "stateMutability": "view",
      "type": "function"
    },
    {
      "inputs": [],
      "name": "owner",
      "outputs": [
        {
          "internalType": "address",
          "name": "",
          "type": "address"
        }
      ],
      "stateMutability": "view",
      "type": "function"
    },
    {
      "inputs": [],
      "name": "renounceOwnership",
      "outputs": [],
      "stateMutability": "nonpayable",
      "type": "function"
    },
    {
      "inputs": [
        {
          "internalType": "bytes32[]",
          "name": "dataKeys",
          "type": "bytes32[]"
        },
        {
          "internalType": "bytes[]",
          "name": "dataValues",
          "type": "bytes[]"
        }
      ],
      "name": "setData",
      "outputs": [],
      "stateMutability": "nonpayable",
      "type": "function"
    },
    {
      "inputs": [
        {
          "internalType": "bytes32",
          "name": "dataKey",
          "type": "bytes32"
        },
        {
          "internalType": "bytes",
          "name": "dataValue",
          "type": "bytes"
        }
      ],
      "name": "setData",
      "outputs": [],
      "stateMutability": "nonpayable",
      "type": "function"
    },
    {
      "inputs": [
        {
          "internalType": "bytes4",
          "name": "interfaceId",
          "type": "bytes4"
        }
      ],
      "name": "supportsInterface",
      "outputs": [
        {
          "internalType": "bool",
          "name": "",
          "type": "bool"
        }
      ],
      "stateMutability": "view",
      "type": "function"
    },
    {
      "inputs": [
        {
          "internalType": "address",
          "name": "newOwner",
          "type": "address"
        }
      ],
      "name": "transferOwnership",
      "outputs": [],
      "stateMutability": "nonpayable",
      "type": "function"
    }
  ],
  "bytecode": "0x608060405234801561001057600080fd5b50604051610d74380380610d7483398101604081905261002f916100ae565b6100428161004860201b61048c1760201c565b506100de565b6000546001600160a01b038281169116146100ab57600080546001600160a01b038381166001600160a01b0319831681178455604051919092169283917f8be0079c531659141344cd1fd0a4f28419497f9722a3daafe3b4186f6b6457e09190a3505b50565b6000602082840312156100c057600080fd5b81516001600160a01b03811681146100d757600080fd5b9392505050565b610c87806100ed6000396000f3fe608060405234801561001057600080fd5b50600436106100885760003560e01c8063715018a61161005b578063715018a61461010a5780637f23690c146101125780638da5cb5b14610125578063f2fde38b1461014d57600080fd5b806301ffc9a71461008d57806314a6e293146100b55780634e3e6e9c146100ca57806354f6127f146100ea575b600080fd5b6100a061009b36600461074a565b610160565b60405190151581526020015b60405180910390f35b6100c86100c336600461092e565b6101f9565b005b6100dd6100d8366004610a03565b6102ec565b6040516100ac9190610aab565b6100fd6100f8366004610b2b565b6103a0565b6040516100ac9190610b44565b6100c86103ab565b6100c8610120366004610b57565b6103bf565b60005460405173ffffffffffffffffffffffffffffffffffffffff90911681526020016100ac565b6100c861015b366004610b9e565b6103d5565b60007fffffffff0000000000000000000000000000000000000000000000000000000082167f714df77c0000000000000000000000000000000000000000000000000000000014806101f357507f01ffc9a7000000000000000000000000000000000000000000000000000000007fffffffff000000000000000000000000000000000000000000000000000000008316145b92915050565b610201610523565b8051825114610297576040517f08c379a000000000000000000000000000000000000000000000000000000000815260206004820152602660248201527f4b657973206c656e677468206e6f7420657175616c20746f2076616c7565732060448201527f6c656e677468000000000000000000000000000000000000000000000000000060648201526084015b60405180910390fd5b60005b82518110156102e7576102df8382815181106102b8576102b8610bd4565b60200260200101518383815181106102d2576102d2610bd4565b60200260200101516105c0565b60010161029a565b505050565b6060815167ffffffffffffffff81111561030857610308610793565b60405190808252806020026020018201604052801561033b57816020015b60608152602001906001900390816103265790505b50905060005b825181101561039a5761036c83828151811061035f5761035f610bd4565b602002602001015161060f565b82828151811061037e5761037e610bd4565b60200260200101819052506103938160010190565b9050610341565b50919050565b60606101f38261060f565b6103b3610523565b6103bd600061048c565b565b6103c7610523565b6103d182826105c0565b5050565b6103dd610523565b73ffffffffffffffffffffffffffffffffffffffff8116610480576040517f08c379a000000000000000000000000000000000000000000000000000000000815260206004820152602660248201527f4f776e61626c653a206e6577206f776e657220697320746865207a65726f206160448201527f6464726573730000000000000000000000000000000000000000000000000000606482015260840161028e565b6104898161048c565b50565b60005473ffffffffffffffffffffffffffffffffffffffff828116911614610489576000805473ffffffffffffffffffffffffffffffffffffffff8381167fffffffffffffffffffffffff0000000000000000000000000000000000000000831681178455604051919092169283917f8be0079c531659141344cd1fd0a4f28419497f9722a3daafe3b4186f6b6457e09190a35050565b3361054360005473ffffffffffffffffffffffffffffffffffffffff1690565b73ffffffffffffffffffffffffffffffffffffffff16146103bd576040517f08c379a000000000000000000000000000000000000000000000000000000000815260206004820181905260248201527f4f776e61626c653a2063616c6c6572206973206e6f7420746865206f776e6572604482015260640161028e565b600082815260016020908152604090912082516105df928401906106b1565b5060405182907fcdf4e344c0d23d4cdd0474039d176c55b19d531070dbe17856bfb993a5b5720b90600090a25050565b600081815260016020526040902080546060919061062c90610c03565b80601f016020809104026020016040519081016040528092919081815260200182805461065890610c03565b80156106a55780601f1061067a576101008083540402835291602001916106a5565b820191906000526020600020905b81548152906001019060200180831161068857829003601f168201915b50505050509050919050565b8280546106bd90610c03565b90600052602060002090601f0160209004810192826106df5760008555610725565b82601f106106f857805160ff1916838001178555610725565b82800160010185558215610725579182015b8281111561072557825182559160200191906001019061070a565b50610731929150610735565b5090565b5b808211156107315760008155600101610736565b60006020828403121561075c57600080fd5b81357fffffffff000000000000000000000000000000000000000000000000000000008116811461078c57600080fd5b9392505050565b7f4e487b7100000000000000000000000000000000000000000000000000000000600052604160045260246000fd5b604051601f82017fffffffffffffffffffffffffffffffffffffffffffffffffffffffffffffffe016810167ffffffffffffffff8111828210171561080957610809610793565b604052919050565b600067ffffffffffffffff82111561082b5761082b610793565b5060051b60200190565b600082601f83011261084657600080fd5b8135602061085b61085683610811565b6107c2565b82815260059290921b8401810191818101908684111561087a57600080fd5b8286015b84811015610895578035835291830191830161087e565b509695505050505050565b600082601f8301126108b157600080fd5b813567ffffffffffffffff8111156108cb576108cb610793565b6108fc60207fffffffffffffffffffffffffffffffffffffffffffffffffffffffffffffffe0601f840116016107c2565b81815284602083860101111561091157600080fd5b816020850160208301376000918101602001919091529392505050565b6000806040838503121561094157600080fd5b823567ffffffffffffffff8082111561095957600080fd5b61096586838701610835565b935060209150818501358181111561097c57600080fd5b8501601f8101871361098d57600080fd5b803561099b61085682610811565b81815260059190911b820184019084810190898311156109ba57600080fd5b8584015b838110156109f2578035868111156109d65760008081fd5b6109e48c89838901016108a0565b8452509186019186016109be565b508096505050505050509250929050565b600060208284031215610a1557600080fd5b813567ffffffffffffffff811115610a2c57600080fd5b610a3884828501610835565b949350505050565b6000815180845260005b81811015610a6657602081850181015186830182015201610a4a565b81811115610a78576000602083870101525b50601f017fffffffffffffffffffffffffffffffffffffffffffffffffffffffffffffffe0169290920160200192915050565b6000602080830181845280855180835260408601915060408160051b870101925083870160005b82811015610b1e577fffffffffffffffffffffffffffffffffffffffffffffffffffffffffffffffc0888603018452610b0c858351610a40565b94509285019290850190600101610ad2565b5092979650505050505050565b600060208284031215610b3d57600080fd5b5035919050565b60208152600061078c6020830184610a40565b60008060408385031215610b6a57600080fd5b82359150602083013567ffffffffffffffff811115610b8857600080fd5b610b94858286016108a0565b9150509250929050565b600060208284031215610bb057600080fd5b813573ffffffffffffffffffffffffffffffffffffffff8116811461078c57600080fd5b7f4e487b7100000000000000000000000000000000000000000000000000000000600052603260045260246000fd5b600181811c90821680610c1757607f821691505b6020821081141561039a577f4e487b7100000000000000000000000000000000000000000000000000000000600052602260045260246000fdfea2646970667358221220f2f58da2a4ae0785e1390c94bda81bb038bcab3897b9d31df46c863f8a8b7fdc64736f6c63430008090033",
  "linkReferences": {},
  "deployedLinkReferences": {}
}