{
  "_format": "hh-sol-artifact-1",
  "contractName": "SocialNetworkPostFactoryTest",
  "sourceName": "contracts/SocialNetworkPostFactoryTest.sol",
  "abi": [
    {
      "anonymous": false,
      "inputs": [
        {
          "indexed": true,
          "internalType": "address",
          "name": "author",
          "type": "address"
        },
        {
          "indexed": true,
          "internalType": "address",
          "name": "newPost",
          "type": "address"
        }
      ],
      "name": "CreatedPost",
      "type": "event"
    },
    {
      "inputs": [
        {
          "internalType": "address",
          "name": "_author",
          "type": "address"
        },
        {
          "internalType": "bytes",
          "name": "_data",
          "type": "bytes"
        },
        {
          "internalType": "address[]",
          "name": "_taggedUsers",
          "type": "address[]"
        },
        {
          "internalType": "address",
          "name": "_referencedPost",
          "type": "address"
        }
      ],
      "name": "createCommentPost",
      "outputs": [
        {
          "internalType": "address",
          "name": "",
          "type": "address"
        }
      ],
      "stateMutability": "nonpayable",
      "type": "function"
    },
    {
      "inputs": [
        {
          "internalType": "address",
          "name": "_author",
          "type": "address"
        },
        {
          "internalType": "bytes",
          "name": "_data",
          "type": "bytes"
        },
        {
          "internalType": "address[]",
          "name": "_taggedUsers",
          "type": "address[]"
        }
      ],
      "name": "createPost",
      "outputs": [
        {
          "internalType": "address",
          "name": "",
          "type": "address"
        }
      ],
      "stateMutability": "nonpayable",
      "type": "function"
    },
    {
      "inputs": [
        {
          "internalType": "address",
          "name": "_author",
          "type": "address"
        },
        {
          "internalType": "bytes",
          "name": "_data",
          "type": "bytes"
        },
        {
          "internalType": "address[]",
          "name": "_taggedUsers",
          "type": "address[]"
        },
        {
          "internalType": "address",
          "name": "_referencedPost",
          "type": "address"
        }
      ],
      "name": "createSharePost",
      "outputs": [
        {
          "internalType": "address",
          "name": "",
          "type": "address"
        }
      ],
      "stateMutability": "nonpayable",
      "type": "function"
    }
  ],
  "bytecode": "0x608060405234801561001057600080fd5b50610667806100206000396000f3fe608060405234801561001057600080fd5b50600436106100415760003560e01c806327529bbe146100465780635110918514610082578063f27ee4cc14610095575b600080fd5b610059610054366004610398565b6100a8565b60405173ffffffffffffffffffffffffffffffffffffffff909116815260200160405180910390f35b61005961009036600461041b565b6101a2565b6100596100a336600461041b565b61029f565b60008073__$166ae69d81e0c2a85c28a3b44767a780af$__6349434d5e3089898989896040518763ffffffff1660e01b81526004016100ec9695949392919061054f565b60206040518083038186803b15801561010457600080fd5b505af4158015610118573d6000803e3d6000fd5b505050506040513d601f19601f8201168201806040525081019061013c91906105a9565b90508073ffffffffffffffffffffffffffffffffffffffff168773ffffffffffffffffffffffffffffffffffffffff167ffada8b4aff6a5cedcbb9c79180b8248a609e9f82dd890ec70236ed844d6621b760405160405180910390a39695505050505050565b60008073__$166ae69d81e0c2a85c28a3b44767a780af$__63dc2dde3d308a8a8a8a8a8a6040518863ffffffff1660e01b81526004016101e897969594939291906105cd565b60206040518083038186803b15801561020057600080fd5b505af4158015610214573d6000803e3d6000fd5b505050506040513d601f19601f8201168201806040525081019061023891906105a9565b90508073ffffffffffffffffffffffffffffffffffffffff168873ffffffffffffffffffffffffffffffffffffffff167ffada8b4aff6a5cedcbb9c79180b8248a609e9f82dd890ec70236ed844d6621b760405160405180910390a3979650505050505050565b60008073__$166ae69d81e0c2a85c28a3b44767a780af$__63c81bfe0e308a8a8a8a8a8a6040518863ffffffff1660e01b81526004016101e897969594939291906105cd565b73ffffffffffffffffffffffffffffffffffffffff8116811461030757600080fd5b50565b60008083601f84011261031c57600080fd5b50813567ffffffffffffffff81111561033457600080fd5b60208301915083602082850101111561034c57600080fd5b9250929050565b60008083601f84011261036557600080fd5b50813567ffffffffffffffff81111561037d57600080fd5b6020830191508360208260051b850101111561034c57600080fd5b6000806000806000606086880312156103b057600080fd5b85356103bb816102e5565b9450602086013567ffffffffffffffff808211156103d857600080fd5b6103e489838a0161030a565b909650945060408801359150808211156103fd57600080fd5b5061040a88828901610353565b969995985093965092949392505050565b6000806000806000806080878903121561043457600080fd5b863561043f816102e5565b9550602087013567ffffffffffffffff8082111561045c57600080fd5b6104688a838b0161030a565b9097509550604089013591508082111561048157600080fd5b5061048e89828a01610353565b90945092505060608701356104a2816102e5565b809150509295509295509295565b8183528181602085013750600060208284010152600060207fffffffffffffffffffffffffffffffffffffffffffffffffffffffffffffffe0601f840116840101905092915050565b8183526000602080850194508260005b8581101561054457813561051c816102e5565b73ffffffffffffffffffffffffffffffffffffffff1687529582019590820190600101610509565b509495945050505050565b600073ffffffffffffffffffffffffffffffffffffffff8089168352808816602084015250608060408301526105896080830186886104b0565b828103606084015261059c8185876104f9565b9998505050505050505050565b6000602082840312156105bb57600080fd5b81516105c6816102e5565b9392505050565b600073ffffffffffffffffffffffffffffffffffffffff808a168352808916602084015260a0604084015261060660a08401888a6104b0565b83810360608501526106198187896104f9565b9250508084166080840152509897505050505050505056fea26469706673582212201013800e16c1810a6975792e77f6424530e235a1faa3aefc48cbd83f4c760fe864736f6c63430008090033",
  "linkReferences": {
    "contracts/SocialNetworkPostFactory.sol": {
      "SocialNetworkPostFactory": [
        {
          "length": 20,
          "start": 205
        },
        {
          "length": 20,
          "start": 455
        },
        {
          "length": 20,
          "start": 708
        }
      ]
    }
  },
  "deployedLinkReferences": {
    "contracts/SocialNetworkPostFactory.sol": {
      "SocialNetworkPostFactory": [
        {
          "length": 20,
          "start": 173
        },
        {
          "length": 20,
          "start": 423
        },
        {
          "length": 20,
          "start": 676
        }
      ]
    }
  }
}