{
  "_format": "hh-sol-artifact-1",
  "contractName": "ERC725YEnumerableSetUtil",
  "sourceName": "contracts/ERC725YEnumerableSetUtil.sol",
  "abi": [
    {
      "inputs": [
        {
          "internalType": "address",
          "name": "_owner",
          "type": "address"
        }
      ],
      "stateMutability": "nonpayable",
      "type": "constructor"
    },
    {
      "anonymous": false,
      "inputs": [
        {
          "indexed": true,
          "internalType": "bytes32",
          "name": "dataKey",
          "type": "bytes32"
        }
      ],
      "name": "DataChanged",
      "type": "event"
    },
    {
      "anonymous": false,
      "inputs": [
        {
          "indexed": true,
          "internalType": "address",
          "name": "previousOwner",
          "type": "address"
        },
        {
          "indexed": true,
          "internalType": "address",
          "name": "newOwner",
          "type": "address"
        }
      ],
      "name": "OwnershipTransferred",
      "type": "event"
    },
    {
      "inputs": [
        {
          "internalType": "bytes12",
          "name": "_mapKeyNamePrefix",
          "type": "bytes12"
        },
        {
          "internalType": "bytes32",
          "name": "_arrayKeyName",
          "type": "bytes32"
        },
        {
          "internalType": "address",
          "name": "_address",
          "type": "address"
        }
      ],
      "name": "addElementToEnumerableSet",
      "outputs": [
        {
          "internalType": "bool",
          "name": "",
          "type": "bool"
        }
      ],
      "stateMutability": "nonpayable",
      "type": "function"
    },
    {
      "inputs": [
        {
          "internalType": "bytes12",
          "name": "_mapKeyNamePrefix",
          "type": "bytes12"
        },
        {
          "internalType": "address",
          "name": "_address",
          "type": "address"
        }
      ],
      "name": "getAddressIndexInEnumerableSet",
      "outputs": [
        {
          "internalType": "uint256",
          "name": "",
          "type": "uint256"
        }
      ],
      "stateMutability": "view",
      "type": "function"
    },
    {
      "inputs": [
        {
          "internalType": "bytes32[]",
          "name": "dataKeys",
          "type": "bytes32[]"
        }
      ],
      "name": "getData",
      "outputs": [
        {
          "internalType": "bytes[]",
          "name": "dataValues",
          "type": "bytes[]"
        }
      ],
      "stateMutability": "view",
      "type": "function"
    },
    {
      "inputs": [
        {
          "internalType": "bytes32",
          "name": "dataKey",
          "type": "bytes32"
        }
      ],
      "name": "getData",
      "outputs": [
        {
          "internalType": "bytes",
          "name": "dataValue",
          "type": "bytes"
        }
      ],
      "stateMutability": "view",
      "type": "function"
    },
    {
      "inputs": [
        {
          "internalType": "bytes12",
          "name": "_mapKeyNamePrefix",
          "type": "bytes12"
        },
        {
          "internalType": "address",
          "name": "_address",
          "type": "address"
        }
      ],
      "name": "isAddressInEnumerableSet",
      "outputs": [
        {
          "internalType": "bool",
          "name": "",
          "type": "bool"
        }
      ],
      "stateMutability": "view",
      "type": "function"
    },
    {
      "inputs": [
        {
          "internalType": "bytes32",
          "name": "_arrayKeyName",
          "type": "bytes32"
        }
      ],
      "name": "length",
      "outputs": [
        {
          "internalType": "uint256",
          "name": "",
          "type": "uint256"
        }
      ],
      "stateMutability": "view",
      "type": "function"
    },
    {
      "inputs": [],
      "name": "owner",
      "outputs": [
        {
          "internalType": "address",
          "name": "",
          "type": "address"
        }
      ],
      "stateMutability": "view",
      "type": "function"
    },
    {
      "inputs": [
        {
          "internalType": "bytes12",
          "name": "_mapKeyNamePrefix",
          "type": "bytes12"
        },
        {
          "internalType": "bytes32",
          "name": "_arrayKeyName",
          "type": "bytes32"
        },
        {
          "internalType": "address",
          "name": "_address",
          "type": "address"
        }
      ],
      "name": "removeElementFromEnumerableSet",
      "outputs": [
        {
          "internalType": "bool",
          "name": "",
          "type": "bool"
        }
      ],
      "stateMutability": "nonpayable",
      "type": "function"
    },
    {
      "inputs": [],
      "name": "renounceOwnership",
      "outputs": [],
      "stateMutability": "nonpayable",
      "type": "function"
    },
    {
      "inputs": [
        {
          "internalType": "bytes32[]",
          "name": "dataKeys",
          "type": "bytes32[]"
        },
        {
          "internalType": "bytes[]",
          "name": "dataValues",
          "type": "bytes[]"
        }
      ],
      "name": "setData",
      "outputs": [],
      "stateMutability": "nonpayable",
      "type": "function"
    },
    {
      "inputs": [
        {
          "internalType": "bytes32",
          "name": "dataKey",
          "type": "bytes32"
        },
        {
          "internalType": "bytes",
          "name": "dataValue",
          "type": "bytes"
        }
      ],
      "name": "setData",
      "outputs": [],
      "stateMutability": "nonpayable",
      "type": "function"
    },
    {
      "inputs": [
        {
          "internalType": "bytes4",
          "name": "interfaceId",
          "type": "bytes4"
        }
      ],
      "name": "supportsInterface",
      "outputs": [
        {
          "internalType": "bool",
          "name": "",
          "type": "bool"
        }
      ],
      "stateMutability": "view",
      "type": "function"
    },
    {
      "inputs": [
        {
          "internalType": "address",
          "name": "newOwner",
          "type": "address"
        }
      ],
      "name": "transferOwnership",
      "outputs": [],
      "stateMutability": "nonpayable",
      "type": "function"
    }
  ],
  "bytecode": "0x60806040523480156200001157600080fd5b5060405162001a0538038062001a058339810160408190526200003491620000ba565b806200004b816200005360201b62000ef41760201c565b5050620000ec565b6000546001600160a01b03828116911614620000b757600080546001600160a01b038381166001600160a01b0319831681178455604051919092169283917f8be0079c531659141344cd1fd0a4f28419497f9722a3daafe3b4186f6b6457e09190a3505b50565b600060208284031215620000cd57600080fd5b81516001600160a01b0381168114620000e557600080fd5b9392505050565b61190980620000fc6000396000f3fe608060405234801561001057600080fd5b50600436106100df5760003560e01c8063715018a61161008c57806390f881751161006657806390f88175146101ca578063a9dbaf25146101dd578063cf659202146101fe578063f2fde38b1461021157600080fd5b8063715018a6146101875780637f23690c1461018f5780638da5cb5b146101a257600080fd5b80634c13e9f1116100bd5780634c13e9f1146101345780634e3e6e9c1461014757806354f6127f1461016757600080fd5b806301ffc9a7146100e457806312e423a91461010c57806314a6e2931461011f575b600080fd5b6100f76100f2366004611217565b610224565b60405190151581526020015b60405180910390f35b6100f761011a3660046112b0565b6102bd565b61013261012d36600461148b565b610809565b005b6100f76101423660046112b0565b6108fc565b61015a610155366004611560565b610bde565b6040516101039190611600565b61017a610175366004611680565b610c92565b6040516101039190611699565b610132610c9d565b61013261019d3660046116ac565b610cb1565b60005460405173ffffffffffffffffffffffffffffffffffffffff9091168152602001610103565b6100f76101d83660046116f3565b610cc7565b6101f06101eb366004611680565b610cdc565b604051908152602001610103565b6101f061020c3660046116f3565b610d1b565b61013261021f36600461172a565b610e3d565b60007fffffffff0000000000000000000000000000000000000000000000000000000082167f714df77c0000000000000000000000000000000000000000000000000000000014806102b757507f01ffc9a7000000000000000000000000000000000000000000000000000000007fffffffff000000000000000000000000000000000000000000000000000000008316145b92915050565b6000806102ca8584610d1b565b9050806102db576000915050610802565b6040517fe1fd2a030000000000000000000000000000000000000000000000000000000081527fffffffffffffffffffffffff00000000000000000000000000000000000000008616600482015273ffffffffffffffffffffffffffffffffffffffff8416602482015260009073__$2ed68bf94fb46cb586c30c069e83373029$__9063e1fd2a039060440160206040518083038186803b15801561037f57600080fd5b505af4158015610393573d6000803e3d6000fd5b505050506040513d601f19601f820116820180604052508101906103b79190611747565b905060006103c58684610f8b565b905060006103d287610c92565b8060200190518101906103e59190611747565b905060006103f38883610f8b565b905060608060008488146106435760408051600580825260c08201909252906020820160a0803683370190505060408051600580825260c08201909252919450816020015b6060815260200190600190039081610438579050509150600061045a85610c92565b80602001905181019061046d9190611760565b6040517fe1fd2a030000000000000000000000000000000000000000000000000000000081527fffffffffffffffffffffffff00000000000000000000000000000000000000008f16600482015273ffffffffffffffffffffffffffffffffffffffff8216602482015290915060009073__$2ed68bf94fb46cb586c30c069e83373029$__9063e1fd2a039060440160206040518083038186803b15801561051457600080fd5b505af4158015610528573d6000803e3d6000fd5b505050506040513d601f19601f8201168201806040525081019061054c9190611747565b9050878584815181106105615761056161177d565b6020026020010181815250508160405160200161059a919073ffffffffffffffffffffffffffffffffffffffff91909116815260200190565b6040516020818303038152906040528484815181106105bb576105bb61177d565b6020026020010181905250826105d0906117db565b9250808584815181106105e5576105e561177d565b6020026020010181815250508960405160200161060491815260200190565b6040516020818303038152906040528484815181106106255761062561177d565b60200260200101819052508261063a906117db565b92505050610692565b6040805160038082526080820190925290602082016060803683370190505060408051600380825260808201909252919450816020015b606081526020019060019003908161067a5790505091505b868382815181106106a5576106a561177d565b6020908102919091018101919091526040805160008152918201905282518390839081106106d5576106d561177d565b6020026020010181905250806106ea906117db565b9050838382815181106106ff576106ff61177d565b60209081029190910181019190915260408051600081529182019052825183908390811061072f5761072f61177d565b602002602001018190525080610744906117db565b90508a8382815181106107595761075961177d565b60200260200101818152505060018511156107bc57610779600186611814565b60405160200161078b91815260200190565b6040516020818303038152906040528282815181106107ac576107ac61177d565b60200260200101819052506107eb565b60408051600081526020810190915282518390839081106107df576107df61177d565b60200260200101819052505b6107f58383610809565b6001985050505050505050505b9392505050565b610811610ff0565b80518251146108a7576040517f08c379a000000000000000000000000000000000000000000000000000000000815260206004820152602660248201527f4b657973206c656e677468206e6f7420657175616c20746f2076616c7565732060448201527f6c656e677468000000000000000000000000000000000000000000000000000060648201526084015b60405180910390fd5b60005b82518110156108f7576108ef8382815181106108c8576108c861177d565b60200260200101518383815181106108e2576108e261177d565b602002602001015161108d565b6001016108aa565b505050565b6000806109098584610d1b565b9050801561091b576000915050610802565b6040517fe1fd2a030000000000000000000000000000000000000000000000000000000081527fffffffffffffffffffffffff00000000000000000000000000000000000000008616600482015273ffffffffffffffffffffffffffffffffffffffff8416602482015260009073__$2ed68bf94fb46cb586c30c069e83373029$__9063e1fd2a039060440160206040518083038186803b1580156109bf57600080fd5b505af41580156109d3573d6000803e3d6000fd5b505050506040513d601f19601f820116820180604052508101906109f79190611747565b90506000610a0486610c92565b905060008082511115610a285781806020019051810190610a259190611747565b90505b6000610a3582600161182b565b90506000610a438983610f8b565b6040805160038082526080820190925291925060009190602082016060803683375050604080516003808252608082019092529293506000929150602082015b6060815260200190600190039081610a835790505090508682600081518110610aae57610aae61177d565b60200260200101818152505083604051602001610acd91815260200190565b60405160208183030381529060405281600081518110610aef57610aef61177d565b60200260200101819052508a82600181518110610b0e57610b0e61177d565b60200260200101818152505083604051602001610b2d91815260200190565b60405160208183030381529060405281600181518110610b4f57610b4f61177d565b60200260200101819052508282600281518110610b6e57610b6e61177d565b60200260200101818152505089604051602001610ba7919073ffffffffffffffffffffffffffffffffffffffff91909116815260200190565b60405160208183030381529060405281600281518110610bc957610bc961177d565b60200260200101819052506107f58282610809565b6060815167ffffffffffffffff811115610bfa57610bfa6112f0565b604051908082528060200260200182016040528015610c2d57816020015b6060815260200190600190039081610c185790505b50905060005b8251811015610c8c57610c5e838281518110610c5157610c5161177d565b60200260200101516110dc565b828281518110610c7057610c7061177d565b6020026020010181905250610c858160010190565b9050610c33565b50919050565b60606102b7826110dc565b610ca5610ff0565b610caf6000610ef4565b565b610cb9610ff0565b610cc3828261108d565b5050565b6000610cd38383610d1b565b15159392505050565b600080610ce883610c92565b9050805160001415610cfd5750600092915050565b600081806020019051810190610d139190611747565b949350505050565b6040517fe1fd2a030000000000000000000000000000000000000000000000000000000081527fffffffffffffffffffffffff00000000000000000000000000000000000000008316600482015273ffffffffffffffffffffffffffffffffffffffff82166024820152600090819073__$2ed68bf94fb46cb586c30c069e83373029$__9063e1fd2a039060440160206040518083038186803b158015610dc157600080fd5b505af4158015610dd5573d6000803e3d6000fd5b505050506040513d601f19601f82011682018060405250810190610df99190611747565b90506000610e0682610c92565b9050805160001415610e1d576000925050506102b7565b600081806020019051810190610e339190611747565b9695505050505050565b610e45610ff0565b73ffffffffffffffffffffffffffffffffffffffff8116610ee8576040517f08c379a000000000000000000000000000000000000000000000000000000000815260206004820152602660248201527f4f776e61626c653a206e6577206f776e657220697320746865207a65726f206160448201527f6464726573730000000000000000000000000000000000000000000000000000606482015260840161089e565b610ef181610ef4565b50565b60005473ffffffffffffffffffffffffffffffffffffffff828116911614610ef1576000805473ffffffffffffffffffffffffffffffffffffffff8381167fffffffffffffffffffffffff0000000000000000000000000000000000000000831681178455604051919092169283917f8be0079c531659141344cd1fd0a4f28419497f9722a3daafe3b4186f6b6457e09190a35050565b600080610fe5848460801b604080517fffffffffffffffffffffffffffffffff0000000000000000000000000000000080851660208301528316603082015260609101604051602081830303815290604052905092915050565b9050610d1381611843565b3361101060005473ffffffffffffffffffffffffffffffffffffffff1690565b73ffffffffffffffffffffffffffffffffffffffff1614610caf576040517f08c379a000000000000000000000000000000000000000000000000000000000815260206004820181905260248201527f4f776e61626c653a2063616c6c6572206973206e6f7420746865206f776e6572604482015260640161089e565b600082815260016020908152604090912082516110ac9284019061117e565b5060405182907fcdf4e344c0d23d4cdd0474039d176c55b19d531070dbe17856bfb993a5b5720b90600090a25050565b60008181526001602052604090208054606091906110f990611885565b80601f016020809104026020016040519081016040528092919081815260200182805461112590611885565b80156111725780601f1061114757610100808354040283529160200191611172565b820191906000526020600020905b81548152906001019060200180831161115557829003601f168201915b50505050509050919050565b82805461118a90611885565b90600052602060002090601f0160209004810192826111ac57600085556111f2565b82601f106111c557805160ff19168380011785556111f2565b828001600101855582156111f2579182015b828111156111f25782518255916020019190600101906111d7565b506111fe929150611202565b5090565b5b808211156111fe5760008155600101611203565b60006020828403121561122957600080fd5b81357fffffffff000000000000000000000000000000000000000000000000000000008116811461080257600080fd5b80357fffffffffffffffffffffffff00000000000000000000000000000000000000008116811461128957600080fd5b919050565b73ffffffffffffffffffffffffffffffffffffffff81168114610ef157600080fd5b6000806000606084860312156112c557600080fd5b6112ce84611259565b92506020840135915060408401356112e58161128e565b809150509250925092565b7f4e487b7100000000000000000000000000000000000000000000000000000000600052604160045260246000fd5b604051601f82017fffffffffffffffffffffffffffffffffffffffffffffffffffffffffffffffe016810167ffffffffffffffff81118282101715611366576113666112f0565b604052919050565b600067ffffffffffffffff821115611388576113886112f0565b5060051b60200190565b600082601f8301126113a357600080fd5b813560206113b86113b38361136e565b61131f565b82815260059290921b840181019181810190868411156113d757600080fd5b8286015b848110156113f257803583529183019183016113db565b509695505050505050565b600082601f83011261140e57600080fd5b813567ffffffffffffffff811115611428576114286112f0565b61145960207fffffffffffffffffffffffffffffffffffffffffffffffffffffffffffffffe0601f8401160161131f565b81815284602083860101111561146e57600080fd5b816020850160208301376000918101602001919091529392505050565b6000806040838503121561149e57600080fd5b823567ffffffffffffffff808211156114b657600080fd5b6114c286838701611392565b93506020915081850135818111156114d957600080fd5b8501601f810187136114ea57600080fd5b80356114f86113b38261136e565b81815260059190911b8201840190848101908983111561151757600080fd5b8584015b8381101561154f578035868111156115335760008081fd5b6115418c89838901016113fd565b84525091860191860161151b565b508096505050505050509250929050565b60006020828403121561157257600080fd5b813567ffffffffffffffff81111561158957600080fd5b610d1384828501611392565b6000815180845260005b818110156115bb5760208185018101518683018201520161159f565b818111156115cd576000602083870101525b50601f017fffffffffffffffffffffffffffffffffffffffffffffffffffffffffffffffe0169290920160200192915050565b6000602080830181845280855180835260408601915060408160051b870101925083870160005b82811015611673577fffffffffffffffffffffffffffffffffffffffffffffffffffffffffffffffc0888603018452611661858351611595565b94509285019290850190600101611627565b5092979650505050505050565b60006020828403121561169257600080fd5b5035919050565b6020815260006108026020830184611595565b600080604083850312156116bf57600080fd5b82359150602083013567ffffffffffffffff8111156116dd57600080fd5b6116e9858286016113fd565b9150509250929050565b6000806040838503121561170657600080fd5b61170f83611259565b9150602083013561171f8161128e565b809150509250929050565b60006020828403121561173c57600080fd5b81356108028161128e565b60006020828403121561175957600080fd5b5051919050565b60006020828403121561177257600080fd5b81516108028161128e565b7f4e487b7100000000000000000000000000000000000000000000000000000000600052603260045260246000fd5b7f4e487b7100000000000000000000000000000000000000000000000000000000600052601160045260246000fd5b60007fffffffffffffffffffffffffffffffffffffffffffffffffffffffffffffffff82141561180d5761180d6117ac565b5060010190565b600082821015611826576118266117ac565b500390565b6000821982111561183e5761183e6117ac565b500190565b80516020808301519190811015610c8c577fffffffffffffffffffffffffffffffffffffffffffffffffffffffffffffffff60209190910360031b1b16919050565b600181811c9082168061189957607f821691505b60208210811415610c8c577f4e487b7100000000000000000000000000000000000000000000000000000000600052602260045260246000fdfea26469706673582212204dd2ec57cf0e808f2e92660f66a640f9cfed674a2a993401918af5c078c5d2f364736f6c63430008090033",
  "linkReferences": {
    "contracts/LSP2KeyUtil.sol": {
      "LSP2KeyUtil": [
        {
          "length": 20,
          "start": 1094
        },
        {
          "length": 20,
          "start": 1499
        },
        {
          "length": 20,
          "start": 2694
        },
        {
          "length": 20,
          "start": 3720
        }
      ]
    }
  },
  "deployedLinkReferences": {
    "contracts/LSP2KeyUtil.sol": {
      "LSP2KeyUtil": [
        {
          "length": 20,
          "start": 842
        },
        {
          "length": 20,
          "start": 1247
        },
        {
          "length": 20,
          "start": 2442
        },
        {
          "length": 20,
          "start": 3468
        }
      ]
    }
  }
}